S00C00006D61696E2E7372656373
S11300000C9434000C9449000C9449000C9449005D
S11300100C9449000C9449000C9449000C94490038
S11300200C9449000C9449000C9449000C94490028
S11300300C9449000C9449000C9449000C94490018
S11300400C9449000C9449000C9449000C94490008
S11300500C9449000C9449000C9449000C944900F8
S11300600C9449000C94490011241FBECFEFD8E032
S1130070DEBFCDBF11E0A0E0B1E0ECEBF1E002C0E7
S113008005900D92A431B107D9F70E944B000C944E
S1130090DC000C940000CF93DF93CDB7DEB76497F8
S11300A00FB6F894DEBF0FBECDBF84E1E0E0F1E00F
S11300B0DE01119601900D928A95E1F78FEF87B9D1
S11300C084B98AB915B81BB880E090E015C0FC016A
S11300D0EE0FFF1F21E030E02C0F3D1FE20FF31F56
S11300E0208128B93FEF49E628E1315040402040C3
S11300F0E1F700C0000001968A30910540F315B87D
S113010080E28BB986E090E015C0FC01EE0FFF1F82
S113011021E030E02C0F3D1FE20FF31F208128B9AE
S11301203FEF49E628E1315040402040E1F700C06C
S1130130000001968A30910540F380E285B91BB82E
S113014080E090E015C0FC01EE0FFF1F21E030E0DD
S11301502C0F3D1FE20FF31F208128B93FEF49E622
S113016028E1315040402040E1F700C000000196F2
S11301708A30910540F315B880E28BB986E090E0AF
S113018015C0FC01EE0FFF1F21E030E02C0F3D1FD6
S1130190E20FF31F208128B93FEF49E628E13150EF
S11301A040402040E1F700C0000001968A309105EC
S10F01B040F315B81BB888CFF894FFCFBB
S11301BC90008000F800820092009900B000A40026
S10701CCF900C00072
S9030000FC
